:020000040800F2
:100000000000022041220008991A00089D1A0008E9
:10001000A11A0008A51A0008A91A0008000000008B
:10002000000000000000000000000000AD1A000801
:10003000B11A000800000000B51A0008B91A00083B
:1000400091220008912200089122000891220008C4
:1000500091220008912200089122000891220008B4
:1000600091220008912200089122000891220008A4
:100070009122000891220008912200089122000894
:10008000912200089122000891220008BD1A000860
:10009000C91A0008D51A000891220008E11A0008C0
:1000A0009122000891220008912200089122000864
:1000B0009122000891220008912200089122000854
:1000C0009122000891220008912200089122000844
:1000D00091220008E91A000891220008F51A000888
:1000E000011B0008912200089122000891220008BB
:1000F000091B0008912200089122000891220008A3
:100100009122000891220008912200089122000803
:1001100091220008912200089122000891220008F3
:1001200091220008912200089122000891220008E3
:100130009122000800000000000000009122000849
:1001400091220008912200089122000891220008C3
:1001500091220008912200089122000891220008B3
:1001600091220008912200089122000891220008A3
:10017000912200089122000891220008000000004E
:1001800000000000912200080000000000000000B4
:1001900091220008000000000000000091220008E9
:1001A0000000000000000000000000009122000894
:1001B0009122000891220008912200089122000853
:0401C0009122000880
:1001D00010B5054C237833B9044B13B10448AFF381
:1001E00000800123237010BD1C02002000000000CD
:1001F000949E000808B5034B1BB103490348AFF3B5
:10020000008008BD0000000020020020949E00082D
:10021000034613F8012B002AFBD1181A0138704746
:1002200001F0FF01102A2BDB10F0070F08D010F8A7
:10023000013B013A8B422DD010F0070F42B3F6D1AB
:10024000F0B441EA012141EA014122F007047FF0C4
:1002500000070023F0E80256083C85EA010586EA1B
:10026000010685FA47F5A3FA87F586FA47F6A5FA57
:1002700087F68EB9EED1F0BC01F0FF0102F0070263
:1002800032B110F8013B013A83EA010313B1F8D10E
:100290000020704701387047002D06BF35460338EF
:1002A000073815F0010F07D1013015F4807F02BF28
:1002B000013015F4C03F0130F0BC0138704700BF79
:1002C00081F0004102E000BF83F0004330B54FEA07
:1002D00041044FEA430594EA050F08BF90EA020F74
:1002E0001FBF54EA000C55EA020C7FEA645C7FEA07
:1002F000655C00F0E2804FEA5454D4EB5555B8BF2A
:100300006D420CDD2C4480EA020281EA030382EA9A
:10031000000083EA010180EA020281EA0303362D2C
:1003200088BF30BD11F0004F4FEA01314FF4801CFF
:100330004CEA113102D0404261EB410113F0004F11
:100340004FEA03334CEA133302D0524263EB4303C8
:1003500094EA050F00F0A780A4F10104D5F1200E66
:100360000DDB02FA0EFC22FA05F2801841F10001C1
:1003700003FA0EF2801843FA05F359410EE0A5F195
:1003800020050EF1200E012A03FA0EFC28BF4CF0C6
:10039000020C43FA05F3C01851EBE37101F000457C
:1003A00007D54FF0000EDCF1000C7EEB00006EEB89
:1003B0000101B1F5801F1BD3B1F5001F0CD3490813
:1003C0005FEA30004FEA3C0C04F101044FEA44526A
:1003D00012F5800F80F09A80BCF1004F08BF5FEAF1
:1003E000500C50F1000041EB045141EA050130BDD1
:1003F0005FEA4C0C404141EB0101013C28BFB1F5E3
:10040000801FE9D291F0000F04BF01460020B1FA2D
:1004100081F308BF2033A3F10B03B3F120020CDA00
:100420000C3208DD02F1140CC2F10C0201FA0CF0DE
:1004300021FA02F10CE002F11402D8BFC2F1200C43
:1004400001FA02F120FA0CFCDCBF41EA0C019040F9
:10045000E41AA2BF01EB0451294330BD6FEA040442
:100460001F3C1CDA0C340EDC04F11404C4F120022D
:1004700020FA04F001FA02F340EA030021FA04F33F
:1004800045EA030130BDC4F10C04C4F1200220FA96
:1004900002F001FA04F340EA0300294630BD21FAD4
:1004A00004F0294630BD94F0000F83F4801306BF9A
:1004B00081F480110134013D4EE77FEA645C18BF8E
:1004C0007FEA655C29D094EA050F08BF90EA020F25
:1004D00005D054EA000C04BF1946104630BD91EA1D
:1004E000030F1EBF0021002030BD5FEA545C05D120
:1004F0004000494128BF41F0004130BD14F580045F
:100500003CBF01F5801130BD01F0004545F0FE41D2
:1005100041F470014FF0000030BD7FEA645C1ABF07
:10052000194610467FEA655C1CBF0B46024650EA3E
:10053000013406BF52EA033591EA030F41F400216A
:1005400030BD00BF90F0000F04BF0021704730B5F0
:100550004FF4806404F132044FF000054FF00001C5
:1005600050E700BF90F0000F04BF0021704730B586
:100570004FF4806404F1320410F0004548BF40425B
:100580004FF000013EE700BF42004FEAE2014FEAB0
:1005900031014FEA02701FBF12F07F4393F07F4F8B
:1005A00081F06051704732F07F4208BF704793F08E
:1005B0007F4F04BF41F40021704730B54FF46074A1
:1005C00001F0004521F000411CE700BF50EA0102A4
:1005D00008BF704730B54FF000050AE050EA01024D
:1005E00008BF704730B511F0004502D5404261EBBD
:1005F00041014FF4806404F132045FEA915C3FF4FE
:10060000D8AE4FF003025FEADC0C18BF03325FEA9A
:10061000DC0C18BF033202EBDC02C2F1200300FA4B
:1006200003FC20FA02F001FA03FE40EA0E0021FA70
:1006300002F11444BDE600BF70B54FF0FF0C4CF45E
:10064000E06C1CEA11541DBF1CEA135594EA0C0F10
:1006500095EA0C0F00F0DEF82C4481EA030621EA4B
:100660004C5123EA4C5350EA013518BF52EA033586
:1006700041F4801143F4801338D0A0FB02CE4FF038
:100680000005E1FB02E506F00042E0FB03E54FF068
:100690000006E1FB03569CF0000F18BF4EF0010E60
:1006A000A4F1FF04B6F5007F64F5407404D25FEA5C
:1006B0004E0E6D4146EB060642EAC62141EA55510F
:1006C0004FEAC52040EA5E504FEACE2EB4F1FD0C51
:1006D00088BFBCF5E06F1ED8BEF1004F08BF5FEACF
:1006E000500E50F1000041EB045170BD06F0004681
:1006F00046EA010140EA020081EA0301B4EB5C042E
:10070000C2BFD4EB0C0541EA045170BD41F4801125
:100710004FF0000E013C00F3AB8014F1360FDEBF4A
:10072000002001F0004170BDC4F10004203C35DA26
:100730000C341BDC04F11404C4F1200500FA05F3A9
:1007400020FA04F001FA05F240EA020001F000424A
:1007500021F0004110EBD37021FA04F642EB0601C0
:100760005EEA430E08BF20EAD37070BDC4F10C04EA
:10077000C4F1200500FA04F320FA05F001FA04F2AE
:1007800040EA020001F0004110EBD37041F100019A
:100790005EEA430E08BF20EAD37070BDC4F12005A5
:1007A00000FA05F24EEA020E20FA04F301FA05F20D
:1007B00043EA020321FA04F001F0004121FA04F2B5
:1007C00020EA020000EBD3705EEA430E08BF20EA85
:1007D000D37070BD94F0000F0FD101F000464000BF
:1007E00041EB010111F4801F08BF013CF7D041EA41
:1007F000060195F0000F18BF704703F00046520045
:1008000043EB030313F4801F08BF013DF7D043EA15
:100810000603704794EA0C0F0CEA135518BF95EACB
:100820000C0F0CD050EA410618BF52EA4306D1D152
:1008300081EA030101F000414FF0000070BD50EA71
:10084000410606BF1046194652EA430619D094EAFB
:100850000C0F02D150EA013613D195EA0C0F05D1E5
:1008600052EA03361CBF104619460AD181EA030139
:1008700001F0004141F0FE4141F470014FF00000F1
:1008800070BD41F0FE4141F4780170BD70B54FF08C
:10089000FF0C4CF4E06C1CEA11541DBF1CEA13550C
:1008A00094EA0C0F95EA0C0F00F0A7F8A4EB0504EE
:1008B00081EA030E52EA03354FEA013100F08880E5
:1008C0004FEA03334FF0805545EA131343EA1263AE
:1008D0004FEA022245EA111545EA10654FEA002663
:1008E0000EF000419D4208BF964244F1FD0404F51C
:1008F000407402D25B084FEA3202B61A65EB030578
:100900005B084FEA32024FF480104FF4002CB6EB34
:10091000020E75EB030E22BFB61A754640EA0C00B4
:100920005B084FEA3202B6EB020E75EB030E22BFF4
:10093000B61A754640EA5C005B084FEA3202B6EB35
:10094000020E75EB030E22BFB61A754640EA9C00F4
:100950005B084FEA3202B6EB020E75EB030E22BFC4
:10096000B61A754640EADC0055EA060E18D04FEA82
:10097000051545EA16754FEA06164FEAC30343EA22
:1009800052734FEAC2025FEA1C1CC0D111F4801FEF
:100990000BD141EA00014FF000004FF0004CB6E7E8
:1009A00011F4801F04BF01430020B4F1FD0C88BF87
:1009B000BCF5E06F3FF6AFAEB5EB030C04BFB6EB92
:1009C000020C5FEA500C50F1000041EB045170BD85
:1009D0000EF0004E4EEA113114EB5C04C2BFD4EBB2
:1009E0000C0541EA045170BD41F480114FF0000E36
:1009F000013C90E645EA060E8DE60CEA135594EAB2
:100A00000C0F08BF95EA0C0F3FF43BAF94EA0C0FB4
:100A10000AD150EA01347FF434AF95EA0C0F7FF429
:100A200025AF104619462CE795EA0C0F06D152EA7D
:100A300003353FF4FDAE1046194622E750EA410661
:100A400018BF52EA43067FF4C5AE50EA41047FF472
:100A50000DAF52EA43057FF4EBAE12E74FF0FF3CD7
:100A600006E000BF4FF0010C02E000BF4FF0010CA8
:100A70004DF804CD4FEA410C7FEA6C5C4FEA430C21
:100A800018BF7FEA6C5C1BD001B050EA410C0CBF70
:100A900052EA430C91EA030F02BF90EA020F0020D2
:100AA000704710F1000F91EA030F58BF994208BF39
:100AB00090422CBFD8176FEAE37040F001007047F6
:100AC0004FEA410C7FEA6C5C02D150EA013C07D14D
:100AD0004FEA430C7FEA6C5CD6D152EA033CD3D098
:100AE0005DF8040B704700BF8446104662468C4692
:100AF0001946634600E000BF01B5FFF7B7FF0028C5
:100B000048BF10F1000F01BD4DF808EDFFF7F4FFED
:100B10000CBF012000205DF808FB00BF4DF808ED78
:100B2000FFF7EAFF34BF012000205DF808FB00BF9B
:100B30004DF808EDFFF7E0FF94BF012000205DF8BD
:100B400008FB00BF4DF808EDFFF7CEFF94BF012072
:100B500000205DF808FB00BF4DF808EDFFF7C4FF6B
:100B600034BF012000205DF808FB00BF4FEA410CB4
:100B70007FEA6C5C02D150EA013C0AD14FEA430C97
:100B80007FEA6C5C02D152EA033C02D14FF00000D4
:100B900070474FF0010070474FEA410212F5001212
:100BA00015D211D56FF47873B3EB625212D94FEAB4
:100BB000C12343F0004343EA505311F0004F23FA9E
:100BC00002F018BF404270474FF00000704750EAF3
:100BD000013005D111F0004008BF6FF000407047B0
:100BE0004FF00000704700BF53B94AB9002908BF51
:100BF00000281CBF4FF0FF314FF0FF3000F06EB9FE
:100C0000ADF1080C6DE904CE00F006F8DDF804E063
:100C1000DDE9022304B070472DE9F047089D044642
:100C20008C46002B40F083808A42174647D9B2FA9F
:100C300082F242B1C2F1200024FA00F091409740C4
:100C400040EA010C94404FEA1748230CBCFBF8F62D
:100C50001FFA87FE08FB16C143EA014306FB0EF1AB
:100C6000994209D9FB1806F1FF3080F019819942A9
:100C700040F21681023E3B445B1AA4B2B3FBF8F08B
:100C800008FB103344EA034400FB0EFEA64509D9D5
:100C90003C1900F1FF3380F00581A64540F2028146
:100CA00002383C4440EA0640A4EB0E0400261DB185
:100CB000D4400023C5E900433146BDE8F08702B9BE
:100CC000FFDEB2FA82F2002A50D1CB1B4FEA174E58
:100CD0001FFA87F80126B3FBFEFC210C0EFB1C3328
:100CE00041EA034108FB0CF38B4207D979180CF158
:100CF000FF3002D28B4200F2E9808446C91AA3B2C7
:100D0000B1FBFEF00EFB101143EA014408FB00F8B2
:100D1000A04507D93C1900F1FF3302D2A04500F2EB
:100D2000D9801846A4EB080440EA0C40BFE78B4288
:100D300009D9002D00F0B1800026C5E90001304638
:100D40003146BDE8F087B3FA83F6002E4AD18B42D4
:100D500002D3824200F2B880841A61EB03010120C1
:100D60008C46002DA8D0C5E9004CA5E7C2F12003B0
:100D700020FA03F6974001FA02F04FEA174ED940E5
:100D80003043030CB1FBFEF61FFA87F80EFB161179
:100D900043EA014306FB08F1994204FA02F409D937
:100DA000FB1806F1FF3C80F08D80994240F28A806A
:100DB000023E3B445B1A81B2B3FBFEF00EFB1033E4
:100DC00041EA034100FB08F38B4207D9791800F18F
:100DD000FF3C73D28B4271D902383944CB1A40EAB6
:100DE000064678E7C6F1200C03FA06F422FA0CF363
:100DF0001C4320FA0CF701FA06F34FEA144E21FACD
:100E00000CF11F433B0CB1FBFEF91FFA84F80EFBFB
:100E1000191143EA014109FB08FA8A4502FA06F270
:100E200000FA06F308D9611809F1FF3048D28A4563
:100E300046D9A9F102092144A1EB0A01BFB2B1FBD5
:100E4000FEF00EFB101147EA014700FB08F8B84519
:100E500007D9E71900F1FF312ED2B8452CD9023855
:100E6000274440EA0940A7EB0807A0FB02894F4549
:100E7000C64649461AD317D05DB1B3EB0E0267EBF5
:100E8000010707FA0CFCF2404CEA0202F740C5E900
:100E9000002700263146BDE8F0872E4628460BE79E
:100EA0000646E9E61846FDE64345E5D2B8EB020EF4
:100EB00069EB04010138DFE70846D2E760468DE7B9
:100EC0008146B9E7664675E730464AE7ACF1020C61
:100ED000394413E702383C4424E700BF704700BFA1
:100EE00010B51848184B1949036084B04FF480328C
:100EF000002342600122CDE90133816283600093C7
:100F00000361037680F82030C362C36080F830301C
:100F10000393C261426101F003FA60B90C4A0948C7
:100F2000012300246946CDE90023029401F092FBDD
:100F300020B904B010BD00F03BFCEFE700F038FC36
:100F400004B010BD94080020002001400100000FF3
:100F5000120000100A4B02689A4200D0704782B01B
:100F600003F58C33002201925A6C42F480725A6469
:100F70005B6C03F480730193019B02B0704700BF68
:100F8000002001400D480E4B10B5036004234FF0C4
:100F90008072436000234FF450244FF4A00182611B
:100FA0008383C0E90441C0E9023301F00DFC00B9BC
:100FB00010BDBDE8104000F0FBBB00BFDC08002006
:100FC0000064004070B50268254B88B000249A4246
:100FD000CDE90244CDE90444069401D008B070BDC7
:100FE00003F5EA3300941A6C1E4842F000721A644A
:100FF0001A6C02F000720092009A01941A6B42F08F
:1010000002021A631B6B03F0020301934FF4407258
:101010000223CDE9022302A9032300220925CDE9F9
:101020000423019E069501F0BBFF224621461320B2
:1010300001F044FF132001F079FF224621461420DD
:1010400001F03CFF142001F071FF224621461520DB
:1010500001F034FF152001F069FF08B070BD00BF3A
:1010600000640040000402402DE9F04700248CB0E9
:10107000CDE90644CDE90844794B01940A941A6BF2
:10108000DFF8ECA1DFF8EC81764D42F004021A6340
:101090001A6B02F004020192019A02941A6B42F058
:1010A00080021A631A6B02F080020292029A039481
:1010B0001A6B42F001021A631A6B02F001020392EA
:1010C000039A04941A6B42F002021A631A6B02F03C
:1010D00002020492049A05941A6B42F008021A6301
:1010E0001B6B03F0080305932246504642F20601AB
:1010F000059B02F075F822464046302102F070F858
:10110000224628464CF2010102F06AF828460122E4
:101110000A2102F065F8404601224FF4004102F036
:101120005FF80026002706A9504642F20602012376
:10113000CDE90623CDE9086701F032FF06A9504644
:101140004DF259720323CDE90623089401F028FFDC
:1011500006A9404641F603120323CDE9062308946D
:1011600001F01EFF06A940460C220023CDE906230C
:10117000089401F015FF06A9404630220123CDE96D
:101180000867CDE9062301F00BFF06A928460322D4
:101190000123CDE90867CDE9062301F001FF06A987
:1011A000284643F2D4020323CDE90623089401F034
:1011B000F7FE4FF440420123CDE9062306A9284655
:1011C00002220023CDE908234FF0010901F0E8FED7
:1011D00040464FF40048CDE90689012206A90023C4
:1011E000DFF89490CDE908234FF4006801F0D8FEB1
:1011F000504606A901230893CDE9068901F0D0FEE7
:1012000006A90422032318480894CDE9062301F017
:10121000C7FECDE90867082206A928461123134F07
:10122000CDE90623202601F0BBFE022306A92846AD
:101230000893CDE9066701F0B3FE22462146172048
:1012400001F03CFE172001F071FE224621462820C5
:1012500001F034FE282001F069FE0CB0BDE8F087F3
:101260000038024000040240000C0240000011104F
:1012700000080240000002400000311008B50328B9
:1012800041D8DFE800F0121E2F021F4801224FF460
:10129000005101F0A5FF1D480268D36A0133936332
:1012A0000421BDE8084002F0B9BB17484FF40051D3
:1012B000002201F095FFBDE808401448042102F027
:1012C000D7BB114801224FF4005101F089FF0F48AC
:1012D0000268D36AA3F6B83393630421BDE80840DB
:1012E00002F09CBB084801224FF4005101F078FF46
:1012F00006480268D36AA3F2DC5393630421BDE875
:10130000084002F08BBB08BD0008024044090020E1
:10131000012804D004480022022101F061BF0246E6
:101320000221014801F05CBF0004024000B970478F
:10133000104938B5104C0A682568034642F020026F
:101340000A600E486B6301224FF4004101F048FF30
:101350004FF480410948012201F042FF23681968D7
:1013600011F0010100D038BD2046BDE8384002F040
:1013700055BB00BF58020020040A002000040240B0
:1013800008B50B484FF4006101F024FF094A1368C7
:1013900030B9012003431360BDE8084003F032BFB9
:1013A00023F0010313600020BDE8084003F02ABFCA
:1013B000000802405802002038B50B4B1B689B0701
:1013C00004460D4607D5094B094832211960012210
:1013D000042101F005FF2A462146064803F0E2F801
:1013E000B0FA80F0400938BD5802002044020020C5
:1013F00000080240840A0020F0B503468BB00A467C
:1014000000685968089202AB03C34FF4FC604FF4C4
:10141000FC61CDE9040100240026002711488DF865
:10142000244001AB02AA04A9CDE90667019401F0AA
:1014300007FB38B90C4A019913680B43136001206C
:101440000BB0F0BD094B186810F00200F8D0084B43
:1014500008483225012220211D6001F0C1FE2046EE
:101460000BB0F0BDDC080020500200205802002024
:101470004002002000000240022810B538D0044687
:10148000012C24484FF000024FF4005110D001F01D
:10149000A7FE0421204802F0EBFA00221D48022199
:1014A00001F09EFE1D4A136823F00203136010BD75
:1014B00001F096FE0421184802F0DAFA18480022DA
:1014C0004FF4004101F08CFE12482246022101F047
:1014D00087FE144803686FF00102002159621A6107
:1014E00002F0F8F90D4A136843F00803136010BDC9
:1014F0000B4801224FF4004101F072FE01220A481C
:10150000082101F06DFE054A136843F002031360E1
:1015100010BD00BF0008024044090020580200200E
:10152000000002400409002000040240024A13683F
:1015300023F001031360704750020020024A136831
:1015400023F002031360704750020020024A136820
:1015500023F00403136070475002002030B58BB0B5
:10156000044600F0D5FE0F4B1B689B0707D50E4BBA
:101570000E483225012210211D6001F031FE01AB21
:10158000204603AA002101F0B7FA059B23B1084BBE
:101590001A681A600BB030BDBDF80C0001A903F049
:1015A0007BFEF4E7580200203C02002000000240CD
:1015B0004C02002030B58BB0044600F0A9FE104B61
:1015C0001B689B0707D50F4B0F48322501221021BE
:1015D0001D6001F005FE01AB204603AA012101F0C8
:1015E0008BFA059B33B1094A136843F0010313607A
:1015F0000BB030BDBDF80C0001A903F04DFEF2E7C1
:10160000580200203C020020000002404C02002052
:1016100008B51B482DED028B00F030FF18486421FF
:1016200000F0C4FF48BB164801F010F80346144808
:1016300008EE103A00F09EFF124A134B12881B88E6
:10164000DFED126A07EE102A07EE903AB8EE477AFD
:10165000F8EE677AB8EE488A77EEC77A38EE478AAE
:1016600086EEA77AF3EE0E7AE7EE087AFDEEE77AD9
:10167000BDEC028B17EE900A08BDDFED057AF7E7A7
:10168000940800202C7AFF1F2E7AFF1F0000A04232
:10169000EFFEFFFF154B834200D0704710B5144C8E
:1016A00002F028F92368134823F0080300220221DE
:1016B000236001F095FD10480022082101F090FD03
:1016C00023680E4823F0020300221021236001F05A
:1016D00087FD0A480022202101F082FDBDE810406C
:1016E00004480022042101F07BBD00BF0409002052
:1016F000580200200008024000040240000002409E
:10170000704700BF38B5084B984200D038BD074D30
:101710000446287803F084FD294620460122BDE8CE
:10172000384002F061BF00BF840A0020540200204C
:10173000014B1868704700BF48020020164A08B5E0
:1017400013680133136003F0B1FF144B1A6862B1E0
:10175000013A1A60124B1A687AB1013A1A60114BB9
:101760001A6892B1013A1A6008BD0F48102101F0C1
:1017700037FD0B4B1A68002AEFD10B48202101F0EE
:101780002FFD084B1A68002AECD1BDE80840074835
:10179000042101F025BD00BF480200203C020020CA
:1017A00040020020440200200000024000080240E5
:1017B00008B50448102101F017FD034B3C221A60C4
:1017C000FEE700BF000002403C02002030B589B0B7
:1017D0000C4A0D4B0D48029204930D4A0D4B0E49D5
:1017E00000900E4D0E4C05956846CDE906230194F8
:1017F000039103F07BFD0A2801D109B030BDFFF74A
:10180000D7FF00BFF91300087D12000881130008FC
:1018100011130008251800082D130008791400087A
:10182000B9130008154A13780D2B00D9704770B50D
:101830004FF6F8748AB004EA10244FEAF065581C99
:10184000ADB2107005934FF6E0720023CDE902238C
:101850000026009501940125002401221223084846
:1018600004966946CDE90645CDE9082301F02EF836
:1018700008B90AB070BDFFF79BFF00BF3802002017
:10188000DC08002030B5002397B0CDE90A33CDE95C
:101890000C33CDE90333CDE905332349009302939B
:1018A000086C224A40F080500864096C01F08051B5
:1018B000009100990193136823F4404343F480435B
:1018C0001360136803F44043019302224FF4800332
:1018D000CDE90E230120042254234FF48031CDE9B9
:1018E0001023CDE9080102240222022308A8CDE931
:1018F0001223019D149401F09DFD90B9022521460B
:101900000F24CDE902454FF4805300244FF4805555
:1019100002A8CDE90445069301F07AFC08B917B096
:1019200030BDFFF745FF00BF0038024000700040A7
:1019300008B500F0D3FCFFF7A5FFFFF795FBFFF715
:1019400021FB00F059FB00F005FA00F0B3FBFFF7B4
:10195000C7FA00F04DF900F0C1F900F083F900F08A
:10196000C5FB0821354802F059F8354800224FF4EC
:10197000005101F035FC32480022022101F030FC18
:10198000FFF746FE4D281FDC4FF4FD60FFF74AFFCE
:101990004FF4FC60FFF746FF2A4801F01FF888B9B2
:1019A0002848132101F02AF960B9FFF70FFFFF2043
:1019B000FFF7BCFC24492548012202F015FE03F084
:1019C00093FDFCE7FFF7F4FE0320FFF757FC204CE4
:1019D000204E214D9FED219AF3EE0E8A204600F015
:1019E0004DFD6421204600F0E1FD0028CCD12046C9
:1019F00000F02CFE0346204608EE103A00F0BAFD37
:101A0000338807EE903A2B8807EE103AF8EE676AB3
:101A1000B8EE477AF8EE487A37EE667A77EEE67AED
:101A2000C9EE076AB0EE687AA6EEA77AFDEEC77A2D
:101A300017EE903A4D2BD1DCA6E700BFC409002079
:101A400000080240DC08002054020020840A002024
:101A5000940800202C7AFF1F2E7AFF1F0000A0425E
:101A600082B00C4B002100915A6C42F480425A64BF
:101A70005A6C02F480420092009A01911A6C42F072
:101A800080521A641B6C03F080530193019B02B0D7
:101A9000704700BF00380240704700BFFEE700BF3C
:101AA000FEE700BFFEE700BFFEE700BF704700BFD4
:101AB000704700BF704700BFFFF740BE014801F00C
:101AC000BFB800BFDC080020014801F0B9B800BF72
:101AD000DC080020014801F0B3B800BFDC0800209A
:101AE000202001F089BB00BF014802F0EFBD00BF1C
:101AF000840A0020014802F0E9BD00BF440A00202A
:101B00004FF4006001F078BB08B5044802F0EEFA2B
:101B1000BDE80840024802F0E9BA00BF040900200D
:101B2000840900200120704708B505F0D7FA162374
:101B300003604FF0FF3008BD08B505F0CFFA16235B
:101B40000360FEE770B5161E07DD0C468D19AFF376
:101B5000008004F8010BA542F9D1304670BD00BFEA
:101B600070B5161E07DD0C468D1914F8010BAFF386
:101B70000080AC42F9D1304670BD00BF4FF0FF305D
:101B8000704700BF4FF400534B600020704700BF08
:101B900001207047002070470C4A08B5136833B124
:101BA00018446946884208D81060184608BD084B9A
:101BB0001360184469468842F6D905F08FFA0C2361
:101BC00003604FF0FF33184608BD00BF5C020020E1
:101BD000080B0020054BD3F888204FF0006142F439
:101BE0007002C3F888209960704700BF00ED00E0E4
:101BF00000B51B4887B042F2CF034FF08041C0E9E7
:101C0000001342F20F720023C0E90232CDE9033320
:101C100002930093036183610593019301F0DEFD5C
:101C200098B94FF480530E48029302A902F0B2F91A
:101C300098B9002200230A486946CDE9002302F042
:101C4000FFFA28B907B05DF804FBFFF7B1FDE8E73C
:101C5000FFF7AEFD07B05DF804FBFFF7A9FDE8E76D
:101C6000C409002000B51B481B4B036087B04FF62A
:101C7000FF1341F63F7243600023C0E90232C0E91E
:101C80000433CDE9033302930093836105930193F9
:101C900001F0A4FD98B94FF480530E48029302A9B5
:101CA00002F078F998B9002200230A486946CDE984
:101CB000002302F0C5FA28B907B05DF804FBFFF76E
:101CC00077FDE8E7FFF774FD07B05DF804FBFFF769
:101CD0006FFDE8E70409002000040140F0B51B484F
:101CE0001B4B036085B0532341F62B2180224360B8
:101CF0000023CDE90133C1608261836000930361F9
:101D0000039301F06BFD98B9104801F0EDFEB0B9F6
:101D100000260127002400250C4869460022CDE951
:101D20000067CDE9024501F05BFF58B905B0F0BD91
:101D3000FFF73EFD054801F0D7FE0028E8D0FFF789
:101D400037FDE5E7FFF734FD05B0F0BD840900205D
:101D5000001C0040F0B5374C374B236091B0002396
:101D60000121FF222046C4E90232CDE90933CDE941
:101D70000B33CDE90D33616008932361A36101F05A
:101D80002DFDF0B92B4801F0CDFD08BB00226026E7
:101D9000C82728480A9208A9CDE908670C9201F0E3
:101DA000EDFFC0B92268254900238A42CDE90233FC
:101DB000CDE90433069311D01F498A4229D011B0CE
:101DC000F0BDFFF7F5FC1B4801F0ACFD0028DDD0AD
:101DD000FFF7EEFCDAE7FFF7EBFCE3E7184A0093C6
:101DE000136B184843F004031363136B03F00403ED
:101DF0000093009A02A98024022502230693002260
:101E00000023CDE90245CDE9042301F0C9F811B062
:101E1000F0BD0B4A0193136B0B4843F001031363AE
:101E2000136B03F001030193019A02A98024022598
:101E30000923E3E7040A00200020004000040040DA
:101E400000380240000802400000024070B50368FC
:101E50008CB00024B3F1804FCDE90644CDE90844AD
:101E60000A941AD03A4A93420AD03A4A93422FD05F
:101E7000394A934240D0394A93421CD00CB070BDCD
:101E8000374B01941A6C42F002021A641B6C03F087
:101E900002030193019B0CB070BD03F50E33009457
:101EA0001A6C42F001021A641B6C03F001030093E8
:101EB000009B0CB070BD2A4B05941A6C42F48072E2
:101EC0001A641B6C03F480730593059B0CB070BD02
:101ED000234B02945A6C42F002025A645B6C03F08A
:101EE00002030293224621462C20029B00F0E6FFCB
:101EF0002C2001F01BF8C1E7194B03941A6C194808
:101F000042F080021A641A6C02F080020392039A73
:101F100004941A6B42F001021A631B6B03F0010375
:101F2000049340220223CDE9062306A900230022C0
:101F30000925CDE90823049E0A9501F031F82246CF
:101F400021462C2000F0BAFF2C2000F0EFFF95E78F
:101F50000004004000040140001C0040002000403C
:101F6000003802400000024030B502681D4989B0C7
:101F700000238A42CDE90233CDE90433069304D02D
:101F800019498A421CD009B030BD184A0093136B1E
:101F9000174843F004031363136B03F00403009327
:101FA000009A02A98024022502230693002200231E
:101FB000CDE90245CDE9042300F0F2FF09B030BDC0
:101FC0000A4A0193136B0B4843F001031363136B2D
:101FD00003F001030193019A02A980240225092339
:101FE000E3E700BF0004004000200040003802404A
:101FF000000802400000024030B52C482C4B036022
:102000008FB042F20F7342F2CF02C3600023CDE9DA
:102010000333CDE90733CDE90933CDE90B33426012
:102020008360029300930693036183610593019398
:1020300001F0D4FB38BB4FF480531C48029302A933
:1020400001F0A8FF78BB194801F06CFC40BB0022EE
:10205000002316486946CDE9002302F0F1F8E0B903
:102060000023602440F6C3151048089306A90422F3
:10207000CDE906450A9301F081FE38B90B48FFF718
:1020800073FF0FB030BDFFF793FBD4E7FFF790FB72
:102090000648FFF769FF0FB030BDFFF789FBDFE7A8
:1020A000FFF786FBD3E7FFF783FBCCE7440900206B
:1020B000000400400B4808B50B4B03604FF461412E
:1020C00000230C22C0E90233C0E9063341604261BB
:1020D000036102F037FA00B908BDBDE80840FFF718
:1020E00067BB00BF840A0020001001400B4808B500
:1020F0000B4B03604FF4614100230C22C0E9023313
:10210000C0E9063341604261036102F01BFA00B985
:1021100008BDBDE80840FFF74BBB00BF440A0020E4
:1021200000480040F0B503683F4A8DB00024934258
:10213000CDE90644CDE908440A9404D03B4A9342D1
:102140002FD00DB0F0BD3A4B01945A6C394842F093
:1021500010025A645A6C02F010020192019A029421
:102160001A6B42F001021A631B6B03F00103029326
:102170004FF4C0620223CDE9062306A903230122FE
:102180000725CDE90823029E0A9500F009FF2246A3
:102190002146252000F092FE252000F0C7FE0DB05C
:1021A000F0BD234B03941A6C234842F480221A6436
:1021B0001A6C02F480220392039A04941A6B42F080
:1021C00004021A631A6B02F004020492049A059442
:1021D0001A6B42F002021A631B6B03F002030593B1
:1021E00005992022022301260327072506A9CDE908
:1021F0000623CDE908670A9500F0D2FE022306A95E
:102200004FF480620D480A95CDE90623CDE90867B1
:1022100000F0C6FE22462146272000F04FFE272070
:1022200000F084FE0DB0F0BD0010014000480040F9
:102230000038024000000240000802400004024052
:10224000DFF834D0002103E00C4B5B5843500431DD
:102250000B480C4B42189A42F6D30B4A02E000237B
:1022600042F8043B094B9A42F9D3FFF7B3FC04F060
:102270003BFFFFF75DFB704700000220CCA3000886
:10228000000000201C0200201C020020080B00207F
:10229000FEE7000038B50E4A0E4B12781B68054663
:1022A0004FF47A70B0FBF2F0B3FBF0F000F04CFEAC
:1022B00008B90F2D01D9012038BD04460246294630
:1022C0004FF0FF3000F0FAFD034B20461D6038BD93
:1022D00004000020000000200800002008B50B4B7F
:1022E0001A6842F400721A601A6842F480621A6036
:1022F0001A6842F480721A60032000F0CBFD0020BF
:10230000FFF7C8FFFFF7ACFB002008BD003C024010
:10231000024A136843F002031360704710E000E0C4
:10232000002800F0A080F8B5056C04463DB1236C90
:10233000DB060CD5002384F83C300120F8BDFEF705
:1023400009FE6564236C84F83C50DB06F2D4226CF1
:1023500048492368484D22F4885222F0020242F094
:10236000020222644A6822F440324A604A68606885
:1023700002434A6058682169A768E66820F48070C3
:1023800058605A6842EA01225A60586820F040704A
:1023900058605968A06A39435960996821F400610E
:1023A00099609A68A84242EA06029A6052D09968F7
:1023B000E56A21F0706199609A68104398609968A5
:1023C00021F0405199609A682A439A609A6822F0F5
:1023D00002029A609A68217E42EA41029A6094F869
:1023E0002020002A41D05A68616A42F400625A6093
:1023F0005A6822F460425A605A68013942EA41320E
:102400005A60DA6AE069656922F47002DA62D96AB0
:10241000013841EA0051D962996821F4007199604C
:10242000996894F8302041EA42219960996821F432
:10243000806199609A68002042EA85229A6060640F
:10244000236C23F0030343F001032364002384F887
:102450003C30F8BD9A6822F070629A609A6822F067
:1024600040529A60B2E7012070475A6822F4006235
:102470005A60C6E7002301400100000F10B490F835
:102480003C3083B00022012B01925CD00123026812
:1024900080F83C309368D90714D4314B314C1B6819
:1024A0009168A4FB03439B0C03EB430341F0010140
:1024B00091600193019B2BB1019B013B0193019B17
:1024C000002BF9D19368DB072CD5036C23F4E06370
:1024D00023F0010343F48073036453685C0505D55E
:1024E000036C23F4405343F480530364036C13F4EC
:1024F00080531CBF436C23F0060343646FF022013A
:10250000194B002480F83C4011605968C8060ED170
:1025100016498A420ED001F580718A421CD01449B6
:102520008A4215D0002003B05DF8044B70470F4B72
:102530009A42F7D1906810F04050F3D1936843F07D
:1025400080439360EFE7022003B05DF8044B7047CF
:102550005B68DB06E6D4EDE75B68D906EAD0E1E725
:102560000000002083DE1B430023014000200140C7
:102570000022014090F83C30012B14D003689A6887
:1025800022F001029A609B68DB0707D4036C23F4F6
:10259000885323F0010343F001030364002380F810
:1025A0003C30184670470220704700BF03689A68A5
:1025B00070B50D465105044602D59B68DA053CD43A
:1025C000FFF7B6F806466B1C226824D113689807FB
:1025D000FCD56FF012031360236C43F40073236483
:1025E000936813F0405F14D1207E90B9D36A13F43E
:1025F000700F02D093685A050BD4236C23F48073B8
:102600002364236CDB0404D4236C43F001032364B0
:1026100070BD002070BD13689907DAD425B1FFF7AB
:1026200087F8801BA842CED9236C002243F0040314
:1026300084F83C202364032070BD036C002243F027
:10264000200380F83C200364012070BD0368D86C2F
:10265000704700BFF0B490F83C3082B00022012BEC
:10266000019200F09780012380F83C300D68092D1D
:1026700029D804688B68226905EB45070726BE4008
:1026800022EA060222612269BB40134323614B68A0
:10269000062B2E462CD803EB8303626B053B1F21D0
:1026A000994022EA01026263626B06FA03F3134364
:1026B0006363404B9C422FD0002380F83C30184687
:1026C00002B0F0BC704704688B68E768AEB206EBF6
:1026D00046021E3A4FF0070C0CFA02FC27EA0C07E0
:1026E000E760E76893403B43E3604B68062BD2D931
:1026F0000C2B33D803EB8303A3F123011F22236B9D
:102700008A4023EA02032363236B06FA01F119438B
:10271000284B21639C42CFD1122D2ED0264B9D42B7
:102720003CD1264A264B5168264C21F48001516049
:10273000516841F4000151601B68A4FB03239B0C0A
:1027400003EB83035B000193019B002BB4D0019B3F
:10275000013B0193019B002BF9D1ADE703EB830211
:10276000413AE36A1F21914023EA0103E362E36AED
:1027700006FA02F11943E1629BE7D3F8042322F43D
:102780000002C3F80423D3F8042342F48002C3F800
:10279000042391E7022002B0F0BC7047112D8BD1C9
:1027A000064B5A6822F480025A605A6842F40002CA
:1027B0005A6081E700200140120000100023014010
:1027C0000000002083DE1B4300287CD038B590F841
:1027D00020300446002B73D02268136823F00203D4
:1027E0001360FEF7A5FF054604E0FEF7A1FF431BBB
:1027F0000A2B5CD823685A689107F6D41A6842F00D
:1028000001021A60FEF794FF054604E0FEF790FF10
:10281000401B0A284BD823685A68D207F6D5227E77
:10282000012A1A680CBF42F0800222F080021A606E
:10283000627E012A1A680CBF42F0400222F0400278
:102840001A60A27E012A1A680CBF42F0200222F010
:1028500020021A60E27E012A1A680CBF22F01002E0
:1028600042F010021A60227F012A1A680CBF42F05F
:10287000080222F008021A60627F012A1A680CBF5F
:1028800042F0040222F004021A60D4E90221D4E9E1
:1028900004500A4361682A43024301390A4301256F
:1028A0000021DA61616284F82050084638BD636A0D
:1028B000052243F40033636284F82020012038BDF0
:1028C000FEF780FB88E70120704700BF90F82030BA
:1028D000013B012B05D9436A43F480234362012065
:1028E00070473D4BD3F8002242F00102F0B4C3F828
:1028F0000022D3F8002222F47C52C3F80022D3F83D
:102900000022486A42EA0022C3F800224A69D3F84A
:102910001C42012502F01F0005FA00F024EA000421
:10292000C3F81C42CD69C443002D45D1D3F80C52E5
:102930002540C3F80C52D200CF688D888E680B8872
:1029400002F1804202F5C84245EA074543EA0643E0
:10295000C2F84052C2F844328B691F4A33BBD2F8E6
:1029600004322340C2F804320B69C3B91A4BD3F8BE
:1029700014221440C3F814420B6A012B05D1164AE5
:10298000D2F81C321843C2F81C02134AD2F80032A3
:1029900023F001030020F0BCC2F8003270470E4A59
:1029A000D2F814320343C2F81432E5E7D2F8043205
:1029B0000343C2F80432D7E7012DCDD1D3F80C522E
:1029C0000543C3F80C52D2000F688D888E688B893E
:1029D00002F18042B6E700BF0064004070B590F895
:1029E0002030012B044606D0436A012643F400231D
:1029F0004362304670BD0268DEB2022380F82030A8
:102A0000136823F001031360FEF792FE054604E00D
:102A1000FEF78EFE431B0A2B08D823685B6813F071
:102A20000103F5D11E466362304670BD636A05221C
:102A300043F40033636284F82020304670BD00BF49
:102A400070B490F820400668013C012CB56835D878
:102A500015F0E05F39D0C5F30165032D45D00120A5
:102A6000A84018608B68002B36D0C8684C680343B8
:102A700005F11800000143EAC403335006EB0510CA
:102A80000B69C0F88431097D01294FEA051305D18E
:102A9000D0F8841141F48071C0F884113344516836
:102AA000C3F88C111268C3F88821D0F8803143F044
:102AB0000103C0F8803170BC00207047436A43F4C2
:102AC0008023436270BC01207047436A43F40013C3
:102AD000436270BC012070470C68C86805F1180398
:102AE0001B0140EA4450F050C8E7436A43F4000336
:102AF000436270BC012070472DE9F04190F82040FE
:102B0000013C012C66D8046849B9E568AE0709D1D3
:102B1000436A43F4001343620120BDE8F081256954
:102B2000AD07F5D004EB01150E01D5F8B07107F033
:102B300004079760002F54D0D5F8B071FF08576094
:102B4000D5F8B0E1D5F8B4C1D5F8B471D5F8B45121
:102B50003444CEF3400ED4F8B881C7F307270CF005
:102B60000F042D0CC2E903E4C2E9055783F8008085
:102B700002683244D2F8B821120A5A70026832440C
:102B8000D2F8B821120C9A7002683244D2F8B821F7
:102B9000120EDA7002683244D2F8BC211A7102684F
:102BA0003244D2F8BC21120A5A7102683244D2F877
:102BB000BC21120C9A7102681644D6F8BC21120E80
:102BC000DA71026891B9D36843F020030846D360F4
:102BD000BDE8F081436A43F4802343620120BDE8ED
:102BE000F081D5F8B0717F0D1760A9E7136943F044
:102BF000200313610020BDE8F08100BF90F8203071
:102C0000013B012B05D9436A43F480234362012031
:102C1000704702685369194351610020704700BF33
:102C2000704700BF704700BF704700BF704700BFCC
:102C3000704700BF704700BF704700BF704700BFBC
:102C40002DE9F84F03685C69D3F804809F68D3F8D6
:102C50000CB0D3F810A0D3F8189014F00106054674
:102C600025D017F0010640F08F804FF400524FF44A
:102C70008041F8050DD52B684FF480709860BB0536
:102C800000F1BE80780500F1E4803B0540F1F08062
:102C90000E46F8030BD52B684FF48032B9039A60C7
:102CA00000F1BA807A0340F1CF8046F4004627074E
:102CB00002D51BF0100F61D1600703D51BF0080F80
:102CC00040F08C80A10704D52B68DB689A0740F0A0
:102CD0008C80630602D51AF0100F49D1A70602D5E1
:102CE0001AF0080F73D1E00603D52B681B6999070A
:102CF00062D1A20302D518F0100F61D1E30302D50F
:102D000018F0080F75D1270405D518F0040F06D167
:102D10002B6804225A60002E46D1BDE8F88FE005EA
:102D200004D519F0010F18BF46F00106A10504D51E
:102D300019F0020F18BF46F00206620504D519F01B
:102D4000040F18BF46F004062305E1D519F07009F9
:102D5000DED0B9F1400F00F09A8061D8B9F1200FB0
:102D600000F08380B9F1300F68D146F020065FE0B3
:102D70002B68102246F480661A61AFE72B68102298
:102D800046F40076DA6097E701229A60BB073BD4ED
:102D90007E0760D417F008066ED04FF440524FF40F
:102DA000A0414FF4805664E76B6A1E436E6228466A
:102DB000FFF744FFBDE8F88F2846FEF7FBFB98E7D6
:102DC0002B6810225A602846FFF734FF96E72B68DD
:102DD00008221A612846FFF72BFF84E72B68082298
:102DE000DA602846FFF722FF6CE72846FEF7B6FBBD
:102DF0006FE72B6808225A602846FFF71DFF82E71D
:102E00002846FEF79BFB44E7FEF790FB00264FF4B5
:102E100000524FF480412CE72846FEF797FB46E727
:102E2000B9F1500F1ED0B9F1600F08BF46F480769B
:102E30002B689A6922F070029A616AE7B9F1100F63
:102E4000F6D146F00806F3E73B031CD546F480367E
:102E50002DE716461DE74FF420524FF490414FF4F2
:102E6000006606E746F08006E2E746F01006DFE778
:102E70002846FFF7D7FE0CE7FFF7D2FE4FF40052CB
:102E80004FF48041F5E62846FFF7CEFE0FE746F007
:102E90004006CDE70849CA6810B400024FF6FF04A7
:102EA000224000F4E063134343F0BF6343F4003374
:102EB0005DF8044BCB60704700ED00E0194BDB6818
:102EC000C3F3022330B4C3F10705042D03F1040456
:102ED00028BF0425062C19D9033B4FF0FF349C4032
:102EE00022EA04024FF0FF34AC4021EA0401994089
:102EF000002841EA02010CDB00F1604000F561406E
:102F00000901C9B280F8001330BC70470022134693
:102F1000E8E7054B00F00F0009010344C9B2197638
:102F200030BC704700ED00E0FCEC00E0002807DB5F
:102F300000F01F01034A400901238B4042F8203072
:102F4000704700BF00E100E00138B0F1807F0ED291
:102F5000084B10B4084C5860F02084F8230000227D
:102F6000072110469A605DF8044B196070470120F4
:102F7000704700BF10E000E000ED00E090F8353051
:102F8000022B03D08023436501207047026805238C
:102F900080F83530136823F0010313600020704778
:102FA0002DE9F04F00230E68DFF82082DFF820E2E1
:102FB00083B003E00133102B00F09C8001229A4083
:102FC00032EA060402EA060CF4D14D6825F0100A34
:102FD000BAF1020F00F09180D0F800B04FEA430937
:102FE000032404FA09F405F003072BEA040B07FA9B
:102FF00009F70AF1FF3A47EA0B07BAF1010F6FEA46
:103000000404076040F29F80C7688A683C4002FA67
:1030100009F22243EF00C260CCD500220192D8F819
:10302000442042F48042C8F84420D8F8442023F0D9
:10303000030404F1804402F4804204F59C340192BC
:1030400003F00307019AD4F80890BF000F22BA409A
:1030500029EA020A574A90421FD002F58062904244
:1030600000F08480544A904200F08780534A904296
:1030700000F08A80524A904200F08D80514A90427E
:1030800000F09080504A90420CBF4FF006094FF07C
:10309000070909FA07F74AEA070AC4F808A0DEF8A0
:1030A00000206FEA0C07EC0354BF3A404CEA0202DE
:1030B000CEF80020DEF80440AA0354BF3C404CEA9E
:1030C0000404CEF80440DEF80840EA0254BF3C4055
:1030D0004CEA0404CEF80840DEF80C20AC0203F100
:1030E000010354BF3A404CEA0202102BCEF80C20E8
:1030F0007FF464AF03B0BDE8F08F4FEAD30900EB73
:10310000890903F00707D9F82040BF004FF00F0BE3
:103110000BFA07FB24EA0B0A0C69BC4044EA0A04D8
:10312000C9F82040D0F800A04FEA4309032404FA6C
:1031300009F405F003072AEA040A07FA09F747EA3F
:103140000A07E4430760876804EA070ACF6807FABA
:1031500009F747EA0A078760D0F804A0C5F300170B
:103160002AEA02029F40174347604DE74FF00109EA
:1031700009FA07F74AEA070A8FE74FF0020909FA46
:1031800007F74AEA070A88E74FF0030909FA07F741
:103190004AEA070A81E74FF0040909FA07F74AEA01
:1031A000070A7AE74FF0050909FA07F74AEA070A1A
:1031B00073E700BF0000024000080240000C02401C
:1031C0000010024000140240001802400038024083
:1031D000003C01400369194214BF012000207047E0
:1031E00002B9090481617047436931EA030308BFEA
:1031F00009048161704700BF044A5169014200D14E
:10320000704708B55061FEF77BFA08BD003C0140ED
:10321000002800F08680474A136803F00F038B42B2
:103220002DE9F0410D46044609D2CBB21370136864
:1032300003F00F038B4202D00120BDE8F081236828
:10324000980714D5590704D53B498A6842F4E052DF
:103250008A601A0704D538498A6842F460428A6055
:103260003549A0688A6822F0F00202438A60DF07CD
:1032700021D56268012A56D0931E012B2E4B1B6864
:103280004CD99907D8D52C4EB36823F003031343C8
:10329000B360FEF74DFA41F28838074604E0FEF7C6
:1032A00047FAC01B404543D8B368626803F00C037B
:1032B000B3EB820FF3D11F4A136803F00F03AB4245
:1032C00006D9EBB21370136803F00F03AB42B3D10E
:1032D00023685A0706D51849E0688A6822F4E05244
:1032E00002438A601B0707D5134A2169936823F4B8
:1032F000604343EAC103936000F044F80E4A0F4C68
:1033000092680F49C2F303120346A25C0020D34027
:103310000B60FEF7BFFF0020BDE8F0819801B2D43A
:103320008AE701207047044B1B689E03ABD483E7F8
:10333000032082E7003C024000380240B09E0008B3
:1033400000000020044B054A9B680549C3F3822313
:103350000868D35CD840704700380240C09E00081F
:1033600000000020044B054A9B680549C3F3423323
:103370000868D35CD840704700380240C09E0008FF
:1033800000000020284908B58B6803F00C03082BC7
:1033900007D00C2B1DD0254A2548042B08BF10460A
:1033A00008BD4A684B6813F4800302F03F0230D135
:1033B00049681F48C1F38811A1FB0001FDF714FC07
:1033C000194B5B68C3F3014301335B00B0FBF3F0BF
:1033D00008BD4A684B6813F4800302F03F020ED127
:1033E00049681348C1F38811A1FB0001FDF7FCFBFC
:1033F0000D4B5B68C3F30273B0FBF3F008BD4B6881
:103400000A48C3F38813A3FB00010023FDF7ECFB7C
:10341000EEE74B680548C3F38813A3FB00010023C4
:10342000FDF7E2FBCCE700BF0038024000127A0053
:103430000024F4002DE9F0410368DA0782B0044665
:1034400036D5AE498A6802F00C02042A00F0D18019
:103450008A6802F00C02082A00F0C780A7498A682F
:1034600002F00C020C2A00F004816368B3F5803F7F
:1034700000F00481B3F5A02F00F08F819F4D2A68E2
:1034800022F480322A602A6822F480222A60002BEB
:1034900040F0F980FEF74CF9064605E0FEF748F9E2
:1034A000801B642800F20D812B689903F6D42368F1
:1034B0009A072FD5914A916811F00C0F00F0A78060
:1034C000916801F00C01082900F09D808B498A6801
:1034D00002F00C020C2A00F02C81E368002B00F0B3
:1034E0001781874B854E01221A60FEF721F90546A8
:1034F00005E0FEF71DF9401B022800F2E280336868
:103500009807F6D53368226923F0F80343EAC2032B
:10351000336023681A0715D56369002B00F08D808E
:10352000784B764E01221A60FEF702F9054605E057
:10353000FEF7FEF8401B022800F2C380736F9B0762
:10354000F6D52368580730D56C4A136C13F08053B6
:1035500000F0838000256C4E3368D90540F1A180CE
:10356000A368012B00F0B180052B00F02081634E91
:10357000326F22F001023267326F22F004023267AA
:10358000002B40F0A780FEF7D3F841F288380746B9
:1035900005E0FEF7CDF8C01B404500F29280336F86
:1035A0009807F6D4002D40F00C81A369CBB1534DA0
:1035B000AA6802F00C02082A30D0022B534B4FF0BD
:1035C00000021A6000F0BA80FEF7B2F82C460546F9
:1035D00004E0FEF7ADF8401B022872D823689B0177
:1035E000F7D4002002B0BDE8F0814A6857027FF5A9
:1035F00035AF424A126895037FF55AAF6268002AD8
:103600007FF456AF0AE0526857023FF55FAF3B4A7E
:103610001268950706D5E268012A03D0012002B09E
:10362000BDE8F081354920690A6822F0F80242EAD3
:10363000C0020A601A0785D56EE7324A2F4E136022
:10364000FEF776F8054604E0FEF772F8401B022804
:1036500037D8736F9F07F7D473E70193136C43F068
:1036600080531364136C03F080530193019B012575
:1036700071E74A6856027FF5F8AEBAE71F4A136849
:1036800043F480331360FEF753F81C4E054604E004
:10369000FEF74EF8401B642813D833689803F7D51B
:1036A00005E7336843F480733360FEF741F807465B
:1036B0003368DA053FF554AFFEF73AF8C01B02282D
:1036C000F6D9032002B0BDE8F0810C4A136F43F035
:1036D00001031367FEF72CF8084F064641F28838BD
:1036E00004E0FEF725F8801B4045EAD83B6F9B07B6
:1036F000F7D5002D3FF459AF63E000BF003802401A
:1037000000004742800E4742007000406000474280
:103710002F4A304E1360FEF70BF8054604E0FEF723
:1037200007F8401B0228CCD833689907F7D42368E0
:10373000F0E64A6856023FF5D0AE68E7FDF7F8FFBD
:10374000064604E0FDF7F4FF801B0228B9D82B6879
:103750009901F7D4D4E90732666AE06A216B134312
:10376000A26A43EA861343EA0063520843EA0173FC
:10377000013A1949174E43EA024301226B600A607D
:10378000FDF7D6FF044604E0FDF7D2FF001B022838
:1037900097D833689A01F7D523E70E4B1A6842F49D
:1037A00080221A601A6842F480321A606BE7094B73
:1037B0001A6F42F004021A671A6F42F001021A6788
:1037C00088E7044A136C23F080531364EDE600BFCE
:1037D000000047420038024060004742002874D091
:1037E00038B590F83D30044603F0FF02002B67D057
:1037F0002168374A022384F83D3091420B684BD050
:10380000B1F1804F31D0A2F57C4291422DD002F52A
:103810008062914229D002F58062914225D002F562
:103820007842914238D002F57052914221D002F58F
:10383000806291421DD002F58062914219D0A2F5BA
:103840009832914215D002F58062914211D002F572
:10385000806291420DD0A569E068626823F0800320
:103860002B430B60C8628A6210E0A26823F07003E9
:1038700013432569A269E06823F440732B4323F0C6
:103880008003134362680B60C8628A6201234B6144
:1038900084F83D30002038BDA5682069A26923F076
:1038A00070032B4323F44073034323F0800313433B
:1038B0000B60E368CB6263688B6263690B63E5E767
:1038C00080F83C20FEF7C2FA92E70120704700BF63
:1038D000000001400368DA6842F00102DA609A6889
:1038E00002F00702062A03D01A6842F001021A60A9
:1038F000002070470368DA6822F00102DA601A6A71
:1039000041F211110A4208D1196A40F244421142AF
:1039100003D11A6822F001021A600020704700BF2C
:10392000704700BF002874D038B590F83D30044689
:1039300003F0FF02002B67D02168374A022384F886
:103940003D3091420B684BD0B1F1804F31D0A2F5A0
:103950007C4291422DD002F58062914229D002F53D
:103960008062914225D002F57842914238D002F52A
:103970007052914221D002F5806291421DD002F531
:103980008062914219D0A2F59832914215D002F589
:103990008062914211D002F5806291420DD0A569FA
:1039A000E068626823F080032B430B60C8628A6280
:1039B00010E0A26823F0700313432569A269E06850
:1039C00023F440732B4323F08003134362680B609E
:1039D000C8628A6201234B6184F83D30002038BD03
:1039E000A5682069A26923F070032B4323F4407378
:1039F000034323F0800313430B60E368CB626368E7
:103A00008B6263690B63E5E780F83C20FFF788FF72
:103A100092E70120704700BF0000014003680122C7
:103A2000186A01F01F0102FA01F120EA010010B446
:103A300018621A6A0C4C1143A34219620FD00B4A48
:103A400093420CD09A6802F00702062A03D01A6843
:103A500042F001021A6000205DF8044B70475A6C76
:103A600042F400425A64EDE70000014000040140C6
:103A7000036830B41A6A194D01F01F01012404FAD9
:103A800001F122EA01021A621A6A1A62AB4216D0E6
:103A9000134A934213D0196A41F21112114208D10C
:103AA000196A40F24442114203D11A6822F001021D
:103AB0001A60012380F83D3030BC00207047196A3D
:103AC00041F211121142E6D1196A40F24442114208
:103AD000E1D15A6C22F400425A64DCE70000014054
:103AE00000040140704700BF002874D038B590F83A
:103AF0003D30044603F0FF02002B67D02168374AAF
:103B0000022384F83D3091420B684BD0B1F1804FD5
:103B100031D0A2F57C4291422DD002F580629142D3
:103B200029D002F58062914225D002F57842914277
:103B300038D002F57052914221D002F58062914254
:103B40001DD002F58062914219D0A2F598329142BF
:103B500015D002F58062914211D002F58062914247
:103B60000DD0A569E068626823F080032B430B60E9
:103B7000C8628A6210E0A26823F0700313432569CB
:103B8000A269E06823F440732B4323F080031343BE
:103B900062680B60C8628A6201234B6184F83D3021
:103BA000002038BDA5682069A26923F070032B436B
:103BB00023F44073034323F0800313430B60E36853
:103BC000CB6263688B6263690B63E5E780F83C2036
:103BD000FFF788FF92E70120704700BF0000014017
:103BE00090F83C30012B00F0C580F0B40223012492
:103BF00080F83D3080F83C4003688AB3042A72D0D4
:103C0000082A0A6800F094801D6AD1F804C025F4DF
:103C10008055D1E902641D62DD691F6A25F4407593
:103C20002103120345EA0C2402F4204289B224F451
:103C3000704427F420452A432143D9611A62DA6986
:103C400022F44062DA61DA6942EA0626DE61002384
:103C5000012280F83D2080F83C30F0BC18467047C7
:103C60001E6ADFF814C1CA6826F00106D1E90045D2
:103C700063451E629F691E6A1DD0B3F1804F1AD042
:103C8000ACF57C4C634516D00CF5806C634512D0C6
:103C90000CF5806C63450ED00CF5784C63450AD06A
:103CA0000CF5705C634506D0ACF5943C634502D0DE
:103CB00047F0010502E027F003073D43120125F01C
:103CC000F005D2B226F00A0604F00A042A4334436F
:103CD0009A611C629C698D6824F00C049C619A694D
:103CE0002A439A61B3E71D6A0A68D1F804C025F037
:103CF0001005D1E902641D629D691F6A25F44075B3
:103D00002103120145EA0C2402F0A00289B224F436
:103D1000704427F0A0052A43214399611A629A69E9
:103D200022F440629A619A6942EA06269E618EE711
:103D30001F6A4D6827F48077D1E902641F62D96950
:103D40001F6A21F0030C1202210145EA0C0402F45F
:103D50002062C9B224F0F00427F420652A432143ED
:103D6000D9611A62DA6922F00C02DA61DA69324347
:103D7000DA616CE7022070470000014090F83C30A7
:103D8000012B00F0CE80F0B40223012480F83C40E7
:103D900080F83D300C2A35D8DFE802F0073434349F
:103DA0006C343434983434343D000368D1F808C09E
:103DB0001D6A0F68754E25F001051D621A6A5D685F
:103DC0009C6922F0020224F07304B34242EA0C021E
:103DD00044EA070400F0A78006F58066B34200F0CD
:103DE000A2804E685D609C615E631A629C690D6989
:103DF00044F008049C61996921F0040199619A6971
:103E00002A439A610023012280F83D2080F83C304B
:103E1000F0BC184670470368D1F808C01D6A0F68E7
:103E20005A4E25F480551D621A6A5D68DC6922F4D9
:103E3000005224F4E644B34242EA0C3244EA072436
:103E400000F08E8006F58066B34200F089804E68EF
:103E50005D60DC611E641A62DC690D6944F4006413
:103E6000DC61D96921F48061D961DA6942EA05220D
:103E7000DA61C7E703688F681D6A0E68DFF80CC156
:103E800025F010051D621A6A5D689C6922F0200207
:103E900024F4E644634542EA071244EA06244FD07C
:103EA0003B4FBB424CD04E685D609C619E631A6282
:103EB0009C690D6944F400649C61996921F48061F6
:103EC00099619A6942EA05229A619BE703688F68C3
:103ED0001D6A0E68DFF8B4C025F480751D621A6A89
:103EE0005D68DC6922F4007224F07304634542EAE1
:103EF000072244EA060439D0254FBB4236D04E682B
:103F00005D60DC61DE631A62DC690D6944F00804FF
:103F1000DC61D96921F00401D961DA692A43DA61E7
:103F200070E702207047CE6822F008023243D1E9E0
:103F3000056725F440753E4322F00402354350E7FF
:103F4000CE6822F0800242EA0612D1E9056725F424
:103F5000406C46EA070522F040024CEA8505A2E7DC
:103F60004E6925F4804545EA861570E7CE6822F44F
:103F7000006242EA0622D1E9056725F4405C46EA80
:103F8000070522F480624CEA0515B8E700000140FD
:103F90000004014090F83C30012B74D0F0B402686A
:103FA0000124022380F83C4080F83D3094680B687F
:103FB00024F47F4424F07704602B946065D031D8DA
:103FC000402B48D021D9502B16D1156A166A4C685F
:103FD000CF6826F001061662936925F00A0123F0E6
:103FE000F00343EA0713214393611162936823F0BE
:103FF000700343F0570393600023012280F83D20B3
:1040000080F83C30F0BC18467047202B02D01ED9F7
:10401000302BF1D1916821F070010B4343F007037D
:104020009360E9E7702B49D0B3F5005FE4D1D1E9A3
:104030000153CC6891682B4343EA042321F47F4168
:104040000B439360936843F480439360D4E733F069
:104050001001D1D1DEE7156A166A4C68CF6826F0E8
:1040600001061662936925F00A0123F0F00343EA82
:104070000713214393611162936823F0700343F0A7
:1040800047039360B8E702207047146A4D68CE6812
:1040900024F0100414629169136A21F4704123F032
:1040A000A00343EA051341EA063191611362936864
:1040B00023F0700343F0670393609DE7D1E9015358
:1040C000CC6891682B4343EA042321F47F410B43DE
:1040D0009360936843F0770393608DE7704700BF68
:1040E000704700BF704700BF704700BF03681A6980
:1040F000910710B5044602D5DA6892075FD41A69B1
:10410000500702D5DA68510746D41A69120702D55A
:10411000DA6810072ED41A69D20602D5DA68D006FA
:1041200018D41A69D10702D5DA68D2075DD41A69A2
:10413000100602D5DA6811065FD41A69520602D554
:10414000DA68500661D41A69910602D5DA689206D7
:1041500043D410BD6FF01001082219612277DB698A
:1041600013F4407F204664D0FFF7BAFF0022236893
:104170002277D6E76FF00801042219612277DB6904
:104180009907204652D1FFF7A9FF2046FFF7AAFF63
:10419000002223682277BEE76FF004010222196132
:1041A00022779B6913F4407F20463CD1FFF796FFAE
:1041B0002046FFF797FF002223682277A5E76FF0DC
:1041C00002010122196102779B699B0725D0FFF745
:1041D00087FF00222368227791E76FF020022046B4
:1041E0001A61BDE8104000F04DB86FF001021A618D
:1041F0002046FDF74FFA236899E76FF080021A61B5
:10420000204600F041F8236897E76FF040021A61FA
:104210002046FFF769FF236895E7FFF75FFF204619
:10422000FFF760FFD5E7FFF75BFFC4E7FFF758FF35
:10423000AEE7FFF753FF2046FFF754FF96E700BFB6
:1042400090F83C20012A1AD070B40222046880F849
:104250003D20D1E9006503466068A26820F0700146
:1042600022F0800231432A43012600256160A260CA
:1042700083F83D6083F83C50284670BC70470220AC
:10428000704700BF704700BF704700BF02681169E8
:104290002DE9F843C568836821F440510446294359
:1042A00000691161D16865690343E06921F4164131
:1042B0002B4321F00C0103430B43D3605369A169E5
:1042C00023F440730B43B0F5004F53619B4B00F058
:1042D0009A809A4259D003F580639A4255D0FFF7ED
:1042E00031F8974F636800EB800000EB80009B0083
:1042F000B0FBF3F3A7FB03235B091D01FFF722F8D3
:10430000666800EB800000EB8000B600B0FBF6F6BC
:10431000FFF718F8636800EB800000EB80009B005B
:10432000B0FBF3F3A7FB03235B094FF0640909FB20
:1043300013631B013233A7FB03235B0903F0F00671
:10434000FFF700F8626800EB800000EB800093004C
:10435000B0FBF3F8FEF7F6FFD4E9002300EB800092
:1043600000EB80009B00B0FBF3F3A7FB03135B099A
:1043700009FB13831B013233A7FB0313C3F343135E
:1043800033432B449360BDE8F883FEF7EBFF6C4F9B
:10439000636800EB800000EB80009B00B0FBF3F350
:1043A000A7FB03235B091D01FEF7DCFF666800EB3A
:1043B000800000EB8000B600B0FBF6F6FEF7D2FFFF
:1043C000636800EB800000EB80009B00B0FBF3F320
:1043D000A7FB03234FF064095B0909FB13631B016F
:1043E0003233A7FB03235B0903F0F006FEF7BAFFA5
:1043F000626800EB8000930000EB8000B0FBF3F8F4
:10440000FEF7B0FFA8E79A4259D003F580639A42BD
:1044100055D0FEF797FF4A4F636800EB800000EB32
:1044200080005B00B0FBF3F3A7FB03235B091E01D5
:10443000FEF788FF656800EB800000EB80006D00F0
:10444000B0FBF5F5FEF77EFF636800EB800000EB44
:1044500080005B00B0FBF3F3A7FB03235B094FF085
:10446000640909FB1353DB003233A7FB03231B0949
:1044700003F4F875FEF766FF626800EB800000EB5E
:1044800080005300B0FBF3F8FEF75CFFD4E9002393
:1044900000EB800000EB80005B00B0FBF3F3A7FBB8
:1044A00003135B0909FB1383DB003233A7FB031300
:1044B000C3F3421333442B449360BDE8F883FEF703
:1044C00051FF1F4F636800EB800000EB80005B0032
:1044D000B0FBF3F3A7FB03235B091E01FEF742FFCA
:1044E000656800EB800000EB80006D00B0FBF5F527
:1044F000FEF738FF636800EB800000EB80005B0094
:10450000B0FBF3F3A7FB03234FF064095B0909FB3E
:104510001353DB003233A7FB03231B0903F4F875A5
:10452000FEF720FF626800EB8000530000EB800084
:10453000B0FBF3F8FEF716FFA8E700BF001001403C
:104540001F85EB5160B338B590F83930044603F05D
:10455000FF0203B32268242384F83930D36823F49C
:104560000053D3602046FFF791FE23681A6922F4B6
:1045700090421A615A6922F02A025A61DA680025CB
:10458000202142F40052DA60E56384F8391084F89F
:104590003A10284638BD80F83820FDF7C3FDD9E72A
:1045A0000120704790F83930202B1AD1B9B1B2B13F
:1045B00090F83830012B14D030B400230568C28441
:1045C000212480F83830C36380F83940EC680162F8
:1045D00044F0800482841846EC6030BC70470120AF
:1045E00070470220704700BF90F83A30202B22D14C
:1045F000F9B1F2B190F83830012B1CD030B400235F
:104600000468C285222580F83830C36380F83A50A8
:10461000E568828545F480758162E560626942F0F3
:1046200001026261E26842F020021846E26030BC9A
:104630007047012070470220704700BF704700BFDD
:1046400008B58368B3F5805F17D0036973B1036859
:10465000826A5B68511C03F07F0381621370C38D13
:10466000013B9BB2C3859BB1002008BD836A0268F1
:10467000591C526881621A70F1E70269836ADAB9DB
:1046800002685268C2F3080223F8022B8362E6E74D
:104690000368DA6822F02002DA60DA6822F48072B5
:1046A000DA605A69202122F001025A6180F83A103A
:1046B000FDF728F8002008BD02685268D2B223F83E
:1046C000012B8362CBE700BF704700BF03681A6805
:1046D00070B51607DD68596904460CD1960601D5F8
:1046E000A9064DD4100601D5290651D4560601D588
:1046F000680669D470BD01F0010105F490700843AB
:10470000F0D0D60705D5E80503D5E06B40F00100F1
:10471000E063560729D561B1E16B900741F00201D2
:10472000E16340F18380E16B41F00401E163110733
:1047300021D4E16B0029DDD0920609D5AE0607D55C
:1047400094F83A20222A03D12046FFF779FF236804
:104750005A69E56B02F0400205F0080515433ED1A9
:104760002046FFF7B1FFE56370BD960757D41007E9
:10477000DFD50029DDD0E16B41F00801E163D8E726
:1047800090F83A30222BB5D1BDE87040FFF758BF02
:1047900094F83920212AADD1A268B2F5805F226A4F
:1047A00047D0511C216212785A60E28C013A92B2D1
:1047B000E284002A9ED1DA6822F08002DA60DA68A8
:1047C00042F04002DA6070BDDA68202122F0400237
:1047D000DA60204684F83910FFF730FF70BDDA68E0
:1047E00022F49072DA605A69202122F001025A61A3
:1047F00084F83A105A69550614D55A69606B22F04C
:1048000040025A6170B1114B0365FEF7B7FB0028F7
:104810003FF470AF606BBDE87040036D184700292E
:1048200081D186E72046FFF74FFF70BD1107A2D464
:104830007FE711882069C1F30801596010B902327D
:104840002262B2E701322262AFE700BF514800089E
:1048500008B5806B0023C385C384FFF735FF08BD0F
:1048600038B50025044645703222FF21074802F082
:104870005FFC294604F10800642202F059FC6368D9
:104880001BB1237843F00103237038BDC40A002014
:1048900070B58B78012B044682B0D8B242D0DE28A6
:1048A0004FD18B8840F682429BB293420AD04BD8BC
:1048B00040F2063293427AD8B3F5407F02D8B3F57E
:1048C000E47F3ED18B8840F206329BB2934249D8B6
:1048D000B3F5407F70D85C2B00F0808176D96F2BC8
:1048E00000F04781B3F5E47F13D12378DA070ED5C2
:1048F000B84B002518464FF6FF7630F8022BC82A31
:1049000005D0B24200F0B0810135192DF5D1012357
:10491000CB716378981C5A1C44F8201001206270F7
:1049200002B070BD8B889BB26F2BC8D8592B40F258
:1049300083805A3B9AB2A84B00FA02F21340002B34
:10494000C0D1002002B070BD41F202629342B9D0E2
:1049500041F602029342F4D18B8840F206329BB2B8
:104960009342B5D940F68242934200F01E8145D968
:1049700041F20262934200F0D38041F60202934278
:10498000C7D12378DA070FD5924B002518464FF68A
:10499000FF7630F8022BB2F5C07F05D0B24200F0AE
:1049A0005A810135192DF4D11223CB71B1E7A3F649
:1049B0000203012BC5D885E7A3F20233042B00F2D2
:1049C0006B81DFE803F08662743C4F000C2B00F033
:1049D00092805A2B9DD12378DE0798D57D4B0025F8
:1049E00018464FF6FF7630F8022B802A8FD0B2425D
:1049F00000F042810135192DF5D188E740F6020219
:104A0000934200F0A28040F60302934281D12378C2
:104A1000DD070ED56F4B002518464FF6FF7630F8B0
:104A2000022B802A05D0B24200F0EC800135192D0E
:104A3000F5D11323CB716CE70C2B82D142E723789D
:104A4000DD07F6D5634B002518464FF6FF7630F8A4
:104A5000022B302AEDD0B24200F09F800135192D93
:104A6000F5D1E6E72378D807E3D55A4B0025184659
:104A70004FF6FF7630F8022B302ADAD0B24200F03F
:104A80008C800135192DF5D1D3E72378DB07D0D5FC
:104A9000504B002518464FF6FF7630F8022B302A8F
:104AA000C7D0B24279D00135192DF6D1C1E72378AC
:104AB000DE07BED5474B002518464FF6FF7630F887
:104AC000022B302AB5D0B24267D00135192DF6D16C
:104AD000AFE72378DA07ACD53E4B002518464FF6F2
:104AE000FF7630F8022B302AA3D0B24255D00135E0
:104AF000192DF6D19DE72378DB070ED5354B002520
:104B000018464FF6FF7630F8022B902A05D0B242B5
:104B100000F0BA800135192DF5D10623CB71F8E6E6
:104B20002378DB077FF540AF2A4B002518464FF668
:104B3000FF7630F8022BB2F5B07F3FF435AFB242CA
:104B400068D00135192DF4D12EE72378DB077FF5E6
:104B500070AF204B002518464FF6FF7630F8022B39
:104B6000802A3FF466AFB2424CD00135192DF5D101
:104B70005FE72378D8070DD5164B002518464FF66A
:104B8000FF7630F8022BF82A04D0B2425BD0013510
:104B9000192DF6D10423CB71BBE6302023F8150084
:104BA000019163689847019943E72378DE077FF511
:104BB00040AF084B002518464FF6FF7630F8022B21
:104BC000C82A3FF436AFB2422DD00135192DF5D1A8
:104BD0002FE700BFC40A0020050020002378DD076E
:104BE0000DD53B4B002518464FF6FF7630F8022BCB
:104BF000F82A04D0B2421ED00135192DF6D1022375
:104C0000CB7186E6802023F81500019163689847F0
:104C100001990EE74FF4B07023F815000191636815
:104C200098470199C0E6C82023F8150001916368F0
:104C300098470199FDE6F82023F815006368019173
:104C400098470199DBE7F82023F815006368019184
:104C5000984701999EE74FF4C07023F81500019121
:104C60006368984701999FE6C82023F815000191D1
:104C70006368984701994AE6802023F8150001915E
:104C800063689847019942E6902023F8150063680D
:104C900001919847019940E72378D8077FF5C9AE7D
:104CA0000B4B002218464FF6FF7630F8025B302D92
:104CB0003FF4BFAEB54203D00132192AF5D1B8E6B0
:104CC000302023F812000191636898470199B0E6FB
:104CD000C40A002042781AB3F0B400252B462F46B0
:104CE00003E00135EBB29A420DD99C1C50F82440E8
:104CF0008C42F6D1012A09D8013A0135D2B2EBB281
:104D00009A424270F1D80120F0BC704700EB830456
:104D10000133E668DBB29A42C4E90267F6D8EBE7F2
:104D2000012070474378002B00F098812DE9F0476F
:104D3000C64C9FEDC77A25689FEDC65A9FEDC66A9F
:104D4000013B00F10804DBB204EB8304043040F6BD
:104D50008248F7EE007A41F2026CF8EE005A41F612
:104D6000020740F6020E50F8043F73B1C82900F064
:104D7000978046D8802900F0AC80902909D19E8880
:104D8000B6B20C2E00F0D280DD608442EBD1BDE8DB
:104D9000F0873029F9D19E8840F20139B6B24E45EC
:104DA00000F0B5809E8840F20239B6B24E4500F060
:104DB00011819E8840F20339B6B24E4500F0198148
:104DC0009E88B6B2B6F5417F00F022819E8840F2FF
:104DD0000539B6B24E4500F02A819E8840F2063968
:104DE000B6B24E45D0D19E78DE2ECDD1567916F092
:104DF000100F0CBFF0EE476AF0EE676AC3ED026A6F
:104E0000C2E7B1F5B07F3AD0B1F5C07F21D19E881D
:104E1000B6B2BE42B8D19E78DE2EB5D1967892F861
:104E2000039006F0030ABAF1030FADD0B9F1FF0FFA
:104E3000AAD0360206F4407646EA090606EE906AE3
:104E4000F8EEE66AF0EE654AE6EE854AC3ED024A00
:104E50009AE7F82999D19E88B6B25C2E00F09E8020
:104E60009E88B6B26F2E8FD19E78012E8CD1567946
:104E700006EE906AF8EE666AC3ED026A84E79E88E1
:104E8000B6B2664580D19E78DE2E7FF47DAF9679EE
:104E900092F8079006F0030ABAF1030FC6D173E740
:104EA0009E88B6B2B6F5E47F6BD09E88B6B2464512
:104EB0007FF46AAF9E78DE2E7FF466AFD67816F068
:104EC000400F0CBFF0EE476AF0EE676AC3ED026A6E
:104ED0005AE79E88B6B25A2E3DD09E88B6B2764525
:104EE0006AD09E8840F60309B6B24E457FF44CAFB7
:104EF0009E78DE2E7FF448AF167816F0200F0CBF98
:104F0000F0EE476AF0EE676AC3ED026A3CE79E780E
:104F1000DE2E7FF447AF567916F0010F0CBFF0EE8E
:104F2000476AF0EE676AC3ED026A2DE79E78012EAC
:104F30007FF42AAF167992F80590360206F470666F
:104F400046EA090606EE906AF8EEE66A76EEA66A8A
:104F5000C3ED026A18E79E78012EBED1167892F84A
:104F60000190360206F4407646EA090606EE906A9B
:104F7000F8EEE66AB2EE044AC6EE844AC3ED024A8F
:104F800002E79E78DE2E90D1167806F01F0606EE18
:104F9000906AF8EEE66AC3ED026AF5E69E78012EA5
:104FA0007FF45EAFD67906EE906AF8EE666A76EE2A
:104FB000C66AC3ED026AE7E69E78DE2E91D11678C6
:104FC00016F0040F0CBFF0EE476AF0EE676AC3ED0F
:104FD000026AD9E69E78DE2E7FF4EBAE567916F0A3
:104FE000020F0CBFF0EE476AF0EE676AC3ED026A8B
:104FF000CAE69E78DE2E7FF4E3AE92F90560002EBD
:10500000ACBFF0EE476AF0EE676AC3ED026ABBE63A
:105010009E78DE2E7FF4DAAE167916F0010F0CBF03
:10502000F0EE476AF0EE676AC3ED026AACE69E787E
:10503000DE2E7FF4D2AE567916F0200F0CBFF0EEC4
:10504000476AF0EE676AC3ED026A9DE660020020DF
:10505000000000000000803B00007042704700BF6D
:10506000024A136801331360704700BF60020020DA
:10507000014B1B68184700BF7802002038B51E4D51
:1050800004462A46002302E00133192B22D0944221
:1050900002F11402F8D103EB830205EB82029900BE
:1050A000507C18B1507C0138C0B250740B4405EBF1
:1050B00083056B7C73B92A7C022AD3B216D0032BEA
:1050C0000FD0012B08D0204601F08CFC0B4A13684E
:1050D000013B1360012038BD2146094800F09CFEC9
:1050E000F1E72146074801F0ADFDECE7214606480F
:1050F000FFF7F0FDE7E700BF280600209802002038
:105100009C02002024080020B8050020F8B5384E85
:10511000002301E0192B65D003EB830206EB82022A
:10512000DFB2928892B20133002AF3D1DFF8D0C007
:10513000DCF80030002304E0DCF80020CBB293421E
:1051400015D803EB830206EB8202591C95888488EC
:10515000ADB2A4B2A542EFD195788478A542EBD147
:10516000517C0131C9B2164651743046F8BD002356
:105170000022037486468260C360BEE80F0007EB1E
:10518000870406EB840425460FC5DEF800302B604B
:10519000637C0133DBB26374DCF800300133CCF89C
:1051A0000030A078A18889B201F066F90346214653
:1051B0001048E371FFF76CFB012826460ED00E481D
:1051C000214601F01DFD01280ED021460B4800F0BC
:1051D00003FE012808BF20743046F8BD0223237463
:1051E0003046F8BD1F46A1E7032323743046F8BDBF
:1051F00028060020B8050020240800209C0200207A
:1052000098020020054A136818B143F001031360A7
:10521000704723F001031360704700BF680200204D
:10522000F0B5154C154A2168154D13782E78DFF826
:1052300064C0144F272998BF00234EF6602E014604
:105240009E424FF47A70CCF800E083B0386007D00B
:105250000D482B700568019118461370A8470199F5
:105260000A4B1B6813B1236801332360084803B05D
:10527000BDE8F04000F002BD940200200C000020C8
:105280006402002014000020B405002098020020D1
:10529000700400201000002010B582B004460A46B9
:1052A000019101460D4800F0F9FF019A0C48214692
:1052B000FFF738FDB4F5FC6F01D002B010BD094B0B
:1052C000094A064842F210711960136823F400730A
:1052D000136002B0BDE8104000F048BD9C02002001
:1052E000B80500201C08002068020020614A6249BD
:1052F000DFF8F0C12DE9F8430023604F604D1360E3
:10530000604E614A2B6004463B704FF0FF300B60EB
:105310005E49336010605E4E5E4A8CF800300B6070
:10532000FF23137006F5FA773046143601F05AFB66
:10533000BE42F9D1584A2B68116823F004032B6050
:10534000C1B1564B1B68ABB1554B1B6893B1554B64
:105350001B687BB1544B1B6863B1544B1B684BB14A
:10536000534B1B6833B1534B1B681BB12B6843F085
:1053700004032B602B68216823F004032B600029B1
:105380003CD063681160002B68D04449A2680B6070
:10539000002A67D0424EE1683260002964D041485B
:1053A00022690160002A61D03F486169026019B337
:1053B0003E48A2690160002A5AD03D48E169026076
:1053C00000294DD03C48DFF8EC803C4F3C4C3D4A36
:1053D00003654FF001090823A0F86090C0E9154764
:1053E000C26580F86230C8F8001000F05FFA082843
:1053F00007D00920BDE8F8830620FBE70120BDE8BF
:10540000F88331483368C0F828314FF47A724FF48A
:10541000FC63C0F8242180F83091C0F82C3100F0F2
:10542000AFFC2A48D8F800304360FFF719FA284843
:10543000C0E9134701F0CCFB2648FFF767FE264B77
:10544000024626481A60FFF761FE2B68244A43F0A3
:10545000040310602B600A20BDE8F8830220C9E72E
:105460000820C7E70320C5E70420C3E70520C1E7FC
:105470000720BFE7940200206C02002024060020D1
:105480006802002014000020100000209802002074
:10549000280600200C00002084020020900200203A
:1054A00070020020B405002078020020880200204D
:1054B000200800207C020020700400200D5100080C
:1054C0007D500008715000089C020020B8050020A3
:1054D0002408002030000020800200201C00002052
:1054E0007402002064020020F8B55A4C2368590762
:1054F00001D40120F8BD584D2B686BB9574B1E687D
:1055000026B9574F3A78022A00F092802268D207D3
:1055100047D4544B1B689847534BDFED547A1B68B4
:1055200093ED027AB4EEE77AF1EE10FA03DB4B4B1F
:1055300042F210721A604E4B186848B34D4B1B680C
:10554000D3ED027ADB6853B3FCEEE77AEB2217EE79
:10555000903A4949013B02FB03F3A1FB03231B09DA
:1055600003F114001BB1FF2828BFFF20C0B2434A3B
:10557000434B11681A78272998BF0020824205D032
:10558000404A414912681870087090470220F8BDDF
:105590003B4B3A491A780860002AF1D1F6E7FF2020
:1055A000E5E71B68D3B9394B1B68002B36D12C4E6D
:1055B00033787BB1364B01201B6898472368354A06
:1055C00043F480731268236000209047324A00231E
:1055D0001370337041F288332B609DE7204E33788F
:1055E000022B17D02A4B01201B6898472368294AB1
:1055F00043F480731268236002209047274B264CA7
:10560000224A1B6802204EF6602120703070116023
:10561000984781E71D4B1B68002BCBD0204800F03A
:1056200081F9204800F02EFC1F4801F069FB73E768
:10563000174B01201B6898472368164A43F4807370
:105640001268236001209047134A012316703B70B3
:1056500062E700BF680200206C02002018000020F2
:105660008C02002084020020740200200000FA4313
:10567000140000208002002089888888940200207D
:1056800064020020B40500200C000020100000205F
:105690002008002088020020240600207802002034
:1056A000700400209C0200202408002008B51A4B3A
:1056B0001A6812B11A68013A1A60184B1A6812B1C6
:1056C0001A68013A1A60164B1A6812B11A68013A40
:1056D0001A60144B1A6812B11A68013A1A60124B18
:1056E0001A6862B11A68013A1A6000F029FB00F0EA
:1056F000BBFEFFF7B5FCBDE8084001F0E7BC0B4B73
:105700001A689205F1D41A68094842F400721A60C6
:1057100000F01EFBE9E700BF6C0200201000002033
:1057200014000020180000201C080020680200203F
:105730009C0200202DE9F04F00F1760A04460D4648
:1057400089B050466422002101F0F2FCFF230320BF
:10575000092D84F8785084F8763084F8DA0025D062
:10576000162D21D194F8622094F86130CDE90032F1
:10577000642194F860304A4A04F1790002F04AF951
:1057800094F8DA301844C0B2411CC9B220440A234C
:1057900084F8DA1080F87630236D84F8771050465C
:1057A000984709B0BDE8F08F0421EFE794F8405125
:1057B000002DF9D04FF00008474637E0937894F871
:1057C000DA10B2F80490DBB201F17602A618059364
:1057D000FAF7DAFE0A460146CDE902121FFA89F904
:1057E000059B304ACDF800903046CDF804B06421D6
:1057F00002F010F994F8DA30013D1844C0B2EDB26D
:10580000BD4204EB000384F8DA0088BF2C2200F1CB
:10581000010084BF84F8DA0083F8762094F84051C0
:1058200008F101085FFA88F7AF4234D204EB870928
:10583000D9F810209668D079D36807965FFA80FB74
:10584000002BEDD0E15DD379994207D0D07907AA3A
:1058500001F03AF9D9F81020079E8346938813F493
:105860007F4F3046AAD19378928894F8DA90DBB2D1
:1058700096B20593FAF788FE09F176090A46A14423
:105880000146F6B2CDE90212059B074A009648464A
:10589000CDF804B0ABE794F8DA00411CC9B275E763
:1058A000F09E0008C89E0008DC9E00082DE9F0412B
:1058B000002106460C463C22103001F039FC2146FE
:1058C000C6E91944A6F874403467F466642206F108
:1058D000760001F02DFC86F8DA40214606F1DB0067
:1058E000642201F025FC274686F83F41354606F143
:1058F0000C0406F1480854F8040F18B1736D98476A
:1059000027602F70A04505F10105F4D1044A00235A
:10591000126886F84031F2640820BDE8F08100BFCB
:105920007C0800202DE9F041B0F8743013F0020635
:1059300088B0044630D1DF060CD4990624D45A0628
:1059400045BF23F0400306200820A4F8743008B0B7
:10595000BDE8F0815D0740F1A180C449C26C0968CF
:10596000C8328A42E9D2026F23F0040301329BB2AB
:10597000192AA0F8743000F2A2800267626E9906BC
:1059800002F101026266DAD523F020030520A4F8B3
:10599000743008B0BDE8F08190F8DD20013A142A97
:1059A00071D8DFE812F0D8007000E800F9001500A7
:1059B0007000700070007000700070007000700067
:1059C0007000700070007000700070000C01A30087
:1059D00090F83F31032B00F03781032B4DD904F1B0
:1059E0000C05264604F14808002755F8040F18B1A5
:1059F000636D98472F603770A84506F10106F4D112
:105A000094F83F219A49033A81FB0231D317C3EB43
:105A1000610384F8403143B30026354605EB850326
:105A20002344013693F8E12093F8DF0093F8E01067
:105A30008DF8120012028DF80E10ADF81020BDF88E
:105A4000102093F8E21093B20B43ADF810309DF89C
:105A50001230635503A8A36D98472B1DF5B244F887
:105A6000230094F84031AB42D8D8B4F8743023F016
:105A7000040343F03003A4F8743009212046FFF7F3
:105A800059FEB4F87430794A23F002031168E164D6
:105A90009BB20022A4F8743022674EE7734A43F0A9
:105AA00080031268A0F87430C2640921FFF742FE37
:105AB000B4F8743043F00403A4F874303DE706678B
:105AC00000F10C05074600F1480855F8040F18B11D
:105AD000636D98472E603E70A84507F10107F4D129
